{
  "_format": "hh-sol-artifact-1",
  "contractName": "NftMarketplace",
  "sourceName": "contracts/NftMarketplace.sol",
  "abi": [
    {
      "inputs": [
        {
          "internalType": "address",
          "name": "nftAddress",
          "type": "address"
        },
        {
          "internalType": "uint256",
          "name": "tokenId",
          "type": "uint256"
        }
      ],
      "name": "AlreadyListed",
      "type": "error"
    },
    {
      "inputs": [],
      "name": "NoProceeds",
      "type": "error"
    },
    {
      "inputs": [],
      "name": "NotApprovedForMarketplace",
      "type": "error"
    },
    {
      "inputs": [
        {
          "internalType": "address",
          "name": "nftAddress",
          "type": "address"
        },
        {
          "internalType": "uint256",
          "name": "tokenId",
          "type": "uint256"
        }
      ],
      "name": "NotListed",
      "type": "error"
    },
    {
      "inputs": [],
      "name": "NotOwner",
      "type": "error"
    },
    {
      "inputs": [],
      "name": "PriceMustBeAboveZero",
      "type": "error"
    },
    {
      "inputs": [
        {
          "internalType": "address",
          "name": "nftAddress",
          "type": "address"
        },
        {
          "internalType": "uint256",
          "name": "tokenId",
          "type": "uint256"
        },
        {
          "internalType": "uint256",
          "name": "price",
          "type": "uint256"
        }
      ],
      "name": "PriceNotMet",
      "type": "error"
    },
    {
      "anonymous": false,
      "inputs": [
        {
          "indexed": true,
          "internalType": "address",
          "name": "buyer",
          "type": "address"
        },
        {
          "indexed": true,
          "internalType": "address",
          "name": "nftAddress",
          "type": "address"
        },
        {
          "indexed": true,
          "internalType": "uint256",
          "name": "tokenId",
          "type": "uint256"
        },
        {
          "indexed": false,
          "internalType": "uint256",
          "name": "price",
          "type": "uint256"
        }
      ],
      "name": "ItemBought",
      "type": "event"
    },
    {
      "anonymous": false,
      "inputs": [
        {
          "indexed": true,
          "internalType": "address",
          "name": "seller",
          "type": "address"
        },
        {
          "indexed": true,
          "internalType": "address",
          "name": "nftAddress",
          "type": "address"
        },
        {
          "indexed": true,
          "internalType": "uint256",
          "name": "tokenId",
          "type": "uint256"
        }
      ],
      "name": "ItemCanceled",
      "type": "event"
    },
    {
      "anonymous": false,
      "inputs": [
        {
          "indexed": true,
          "internalType": "address",
          "name": "seller",
          "type": "address"
        },
        {
          "indexed": true,
          "internalType": "address",
          "name": "nftAddress",
          "type": "address"
        },
        {
          "indexed": true,
          "internalType": "uint256",
          "name": "tokenId",
          "type": "uint256"
        },
        {
          "indexed": false,
          "internalType": "uint256",
          "name": "price",
          "type": "uint256"
        }
      ],
      "name": "ItemListed",
      "type": "event"
    },
    {
      "inputs": [
        {
          "internalType": "address",
          "name": "nftAddress",
          "type": "address"
        },
        {
          "internalType": "uint256",
          "name": "tokenId",
          "type": "uint256"
        }
      ],
      "name": "buyItem",
      "outputs": [],
      "stateMutability": "payable",
      "type": "function"
    },
    {
      "inputs": [
        {
          "internalType": "address",
          "name": "nftAddress",
          "type": "address"
        },
        {
          "internalType": "uint256",
          "name": "tokenId",
          "type": "uint256"
        }
      ],
      "name": "cancelListing",
      "outputs": [],
      "stateMutability": "nonpayable",
      "type": "function"
    },
    {
      "inputs": [],
      "name": "getAllItemsListed",
      "outputs": [
        {
          "components": [
            {
              "internalType": "uint256",
              "name": "listedId",
              "type": "uint256"
            },
            {
              "internalType": "uint256",
              "name": "tokenId",
              "type": "uint256"
            },
            {
              "internalType": "uint256",
              "name": "price",
              "type": "uint256"
            },
            {
              "internalType": "address",
              "name": "contractAddress",
              "type": "address"
            },
            {
              "internalType": "address",
              "name": "seller",
              "type": "address"
            }
          ],
          "internalType": "struct NftMarketplace.ListedItem[]",
          "name": "",
          "type": "tuple[]"
        }
      ],
      "stateMutability": "view",
      "type": "function"
    },
    {
      "inputs": [
        {
          "internalType": "uint256",
          "name": "listedId",
          "type": "uint256"
        }
      ],
      "name": "getListing",
      "outputs": [
        {
          "components": [
            {
              "internalType": "uint256",
              "name": "listedId",
              "type": "uint256"
            },
            {
              "internalType": "uint256",
              "name": "tokenId",
              "type": "uint256"
            },
            {
              "internalType": "uint256",
              "name": "price",
              "type": "uint256"
            },
            {
              "internalType": "address",
              "name": "contractAddress",
              "type": "address"
            },
            {
              "internalType": "address",
              "name": "seller",
              "type": "address"
            }
          ],
          "internalType": "struct NftMarketplace.ListedItem",
          "name": "",
          "type": "tuple"
        }
      ],
      "stateMutability": "view",
      "type": "function"
    },
    {
      "inputs": [
        {
          "internalType": "address",
          "name": "seller",
          "type": "address"
        }
      ],
      "name": "getProceeds",
      "outputs": [
        {
          "internalType": "uint256",
          "name": "",
          "type": "uint256"
        }
      ],
      "stateMutability": "view",
      "type": "function"
    },
    {
      "inputs": [
        {
          "internalType": "address",
          "name": "nftAddress",
          "type": "address"
        },
        {
          "internalType": "uint256",
          "name": "tokenId",
          "type": "uint256"
        },
        {
          "internalType": "uint256",
          "name": "price",
          "type": "uint256"
        }
      ],
      "name": "listItem",
      "outputs": [],
      "stateMutability": "nonpayable",
      "type": "function"
    },
    {
      "inputs": [
        {
          "internalType": "address",
          "name": "nftAddress",
          "type": "address"
        },
        {
          "internalType": "uint256",
          "name": "tokenId",
          "type": "uint256"
        },
        {
          "internalType": "uint256",
          "name": "newPrice",
          "type": "uint256"
        }
      ],
      "name": "updateListing",
      "outputs": [],
      "stateMutability": "nonpayable",
      "type": "function"
    },
    {
      "inputs": [],
      "name": "withdrawProceeds",
      "outputs": [],
      "stateMutability": "nonpayable",
      "type": "function"
    }
  ],
  "bytecode": "0x608060405234801561001057600080fd5b506001600081905550611eb3806100286000396000f3fe60806040526004361061007b5760003560e01c80639038e6931161004e5780639038e6931461014e5780639f37092a14610165578063b2ddee0614610181578063f772adf1146101aa5761007b565b8063107a274a146100805780632f7e81db146100bd57806330cfeda9146100e857806389bfd38f14610125575b600080fd5b34801561008c57600080fd5b506100a760048036038101906100a2919061177f565b6101d3565b6040516100b49190611864565b60405180910390f35b3480156100c957600080fd5b506100d26102ca565b6040516100df9190611996565b60405180910390f35b3480156100f457600080fd5b5061010f600480360381019061010a91906119e4565b61050d565b60405161011c9190611a20565b60405180910390f35b34801561013157600080fd5b5061014c60048036038101906101479190611a3b565b610556565b005b34801561015a57600080fd5b50610163610a17565b005b61017f600480360381019061017a9190611a8e565b610b8a565b005b34801561018d57600080fd5b506101a860048036038101906101a39190611a8e565b61102b565b005b3480156101b657600080fd5b506101d160048036038101906101cc9190611a3b565b61135b565b005b6101db6116e9565b600460008381526020019081526020016000206040518060a00160405290816000820154815260200160018201548152602001600282015481526020016003820160009054906101000a900473ffffffffffffffffffffffffffffffffffffffff1673ffffffffffffffffffffffffffffffffffffffff1673ffffffffffffffffffffffffffffffffffffffff1681526020016004820160009054906101000a900473ffffffffffffffffffffffffffffffffffffffff1673ffffffffffffffffffffffffffffffffffffffff1673ffffffffffffffffffffffffffffffffffffffff16815250509050919050565b6060600080600090505b6102de6002611669565b811015610332576000600460006001846102f89190611afd565b815260200190815260200160002060020154111561031f57818061031b90611b53565b9250505b808061032a90611b53565b9150506102d4565b5060008167ffffffffffffffff81111561034f5761034e611b9c565b5b60405190808252806020026020018201604052801561038857816020015b6103756116e9565b81526020019060019003908161036d5790505b509050600080600090505b61039d6001611669565b811015610503576000600460006001846103b79190611afd565b81526020019081526020016000206002015411156104f057600460006001836103e09190611afd565b81526020019081526020016000206040518060a00160405290816000820154815260200160018201548152602001600282015481526020016003820160009054906101000a900473ffffffffffffffffffffffffffffffffffffffff1673ffffffffffffffffffffffffffffffffffffffff1673ffffffffffffffffffffffffffffffffffffffff1681526020016004820160009054906101000a900473ffffffffffffffffffffffffffffffffffffffff1673ffffffffffffffffffffffffffffffffffffffff1673ffffffffffffffffffffffffffffffffffffffff16815250508383815181106104d6576104d5611bcb565b5b602002602001018190525081806104ec90611b53565b9250505b80806104fb90611b53565b915050610393565b5081935050505090565b6000600560008373ffffffffffffffffffffffffffffffffffffffff1673ffffffffffffffffffffffffffffffffffffffff168152602001908152602001600020549050919050565b8282336000600360008573ffffffffffffffffffffffffffffffffffffffff1673ffffffffffffffffffffffffffffffffffffffff168152602001908152602001600020600084815260200190815260200160002054146105f05782826040517f4a5568d50000000000000000000000000000000000000000000000000000000081526004016105e7929190611c09565b60405180910390fd5b858533600083905060008173ffffffffffffffffffffffffffffffffffffffff16636352211e856040518263ffffffff1660e01b81526004016106339190611a20565b60206040518083038186803b15801561064b57600080fd5b505afa15801561065f573d6000803e3d6000fd5b505050506040513d601f19601f820116820180604052508101906106839190611c47565b90508073ffffffffffffffffffffffffffffffffffffffff168373ffffffffffffffffffffffffffffffffffffffff16146106ea576040517f30cd747100000000000000000000000000000000000000000000000000000000815260040160405180910390fd5b60008911610724576040517fe1abbfc500000000000000000000000000000000000000000000000000000000815260040160405180910390fd5b60008b90503073ffffffffffffffffffffffffffffffffffffffff168173ffffffffffffffffffffffffffffffffffffffff1663081812fc8d6040518263ffffffff1660e01b81526004016107799190611a20565b60206040518083038186803b15801561079157600080fd5b505afa1580156107a5573d6000803e3d6000fd5b505050506040513d601f19601f820116820180604052508101906107c99190611c47565b73ffffffffffffffffffffffffffffffffffffffff1614610816576040517f4be3a2c500000000000000000000000000000000000000000000000000000000815260040160405180910390fd5b6108206001611677565b61082a6002611677565b60006108366002611669565b905080600360008f73ffffffffffffffffffffffffffffffffffffffff1673ffffffffffffffffffffffffffffffffffffffff16815260200190815260200160002060008e8152602001908152602001600020819055506040518060a001604052808281526020018d81526020018c81526020018e73ffffffffffffffffffffffffffffffffffffffff1681526020013373ffffffffffffffffffffffffffffffffffffffff168152506004600083815260200190815260200160002060008201518160000155602082015181600101556040820151816002015560608201518160030160006101000a81548173ffffffffffffffffffffffffffffffffffffffff021916908373ffffffffffffffffffffffffffffffffffffffff16021790555060808201518160040160006101000a81548173ffffffffffffffffffffffffffffffffffffffff021916908373ffffffffffffffffffffffffffffffffffffffff1602179055509050508b8d73ffffffffffffffffffffffffffffffffffffffff163373ffffffffffffffffffffffffffffffffffffffff167fd547e933094f12a9159076970143ebe73234e64480317844b0dcb36117116de48e604051610a009190611a20565b60405180910390a450505050505050505050505050565b6000600560003373ffffffffffffffffffffffffffffffffffffffff1673ffffffffffffffffffffffffffffffffffffffff16815260200190815260200160002054905060008111610a95576040517fc4d8fa8700000000000000000000000000000000000000000000000000000000815260040160405180910390fd5b6000600560003373ffffffffffffffffffffffffffffffffffffffff1673ffffffffffffffffffffffffffffffffffffffff1681526020019081526020016000208190555060003373ffffffffffffffffffffffffffffffffffffffff1682604051610b0090611ca5565b60006040518083038185875af1925050503d8060008114610b3d576040519150601f19603f3d011682016040523d82523d6000602084013e610b42565b606091505b5050905080610b86576040517f08c379a0000000000000000000000000000000000000000000000000000000008152600401610b7d90611d17565b60405180910390fd5b5050565b81816000600360008473ffffffffffffffffffffffffffffffffffffffff1673ffffffffffffffffffffffffffffffffffffffff16815260200190815260200160002060008381526020019081526020016000205490506000811415610c295782826040517f6831488c000000000000000000000000000000000000000000000000000000008152600401610c20929190611c09565b60405180910390fd5b60026000541415610c6f576040517f08c379a0000000000000000000000000000000000000000000000000000000008152600401610c6690611d83565b60405180910390fd5b60026000819055506000600360008773ffffffffffffffffffffffffffffffffffffffff1673ffffffffffffffffffffffffffffffffffffffff16815260200190815260200160002060008681526020019081526020016000205490506000600460008381526020019081526020016000206040518060a00160405290816000820154815260200160018201548152602001600282015481526020016003820160009054906101000a900473ffffffffffffffffffffffffffffffffffffffff1673ffffffffffffffffffffffffffffffffffffffff1673ffffffffffffffffffffffffffffffffffffffff1681526020016004820160009054906101000a900473ffffffffffffffffffffffffffffffffffffffff1673ffffffffffffffffffffffffffffffffffffffff1673ffffffffffffffffffffffffffffffffffffffff168152505090508060400151341015610e0957868682604001516040517f7c934565000000000000000000000000000000000000000000000000000000008152600401610e0093929190611da3565b60405180910390fd5b3460056000836080015173ffffffffffffffffffffffffffffffffffffffff1673ffffffffffffffffffffffffffffffffffffffff1681526020019081526020016000206000828254610e5c9190611afd565b925050819055508673ffffffffffffffffffffffffffffffffffffffff166342842e0e826080015133896040518463ffffffff1660e01b8152600401610ea493929190611dda565b600060405180830381600087803b158015610ebe57600080fd5b505af1158015610ed2573d6000803e3d6000fd5b5050505060046000838152602001908152602001600020600080820160009055600182016000905560028201600090556003820160006101000a81549073ffffffffffffffffffffffffffffffffffffffff02191690556004820160006101000a81549073ffffffffffffffffffffffffffffffffffffffff02191690555050600360008873ffffffffffffffffffffffffffffffffffffffff1673ffffffffffffffffffffffffffffffffffffffff168152602001908152602001600020600087815260200190815260200160002060009055610fb0600161168d565b858773ffffffffffffffffffffffffffffffffffffffff163373ffffffffffffffffffffffffffffffffffffffff167f263223b1dd81e51054a4e6f791d45a4a1ddb4aadcd93a2dfd892615c3fdac18784604001516040516110129190611a20565b60405180910390a4505060016000819055505050505050565b818133600083905060008173ffffffffffffffffffffffffffffffffffffffff16636352211e856040518263ffffffff1660e01b815260040161106e9190611a20565b60206040518083038186803b15801561108657600080fd5b505afa15801561109a573d6000803e3d6000fd5b505050506040513d601f19601f820116820180604052508101906110be9190611c47565b90508073ffffffffffffffffffffffffffffffffffffffff168373ffffffffffffffffffffffffffffffffffffffff1614611125576040517f30cd747100000000000000000000000000000000000000000000000000000000815260040160405180910390fd5b86866000600360008473ffffffffffffffffffffffffffffffffffffffff1673ffffffffffffffffffffffffffffffffffffffff168152602001908152602001600020600083815260200190815260200160002054905060008114156111c45782826040517f6831488c0000000000000000000000000000000000000000000000000000000081526004016111bb929190611c09565b60405180910390fd5b6000600360008c73ffffffffffffffffffffffffffffffffffffffff1673ffffffffffffffffffffffffffffffffffffffff16815260200190815260200160002060008b815260200190815260200160002054905060046000828152602001908152602001600020600080820160009055600182016000905560028201600090556003820160006101000a81549073ffffffffffffffffffffffffffffffffffffffff02191690556004820160006101000a81549073ffffffffffffffffffffffffffffffffffffffff02191690555050600360008c73ffffffffffffffffffffffffffffffffffffffff1673ffffffffffffffffffffffffffffffffffffffff16815260200190815260200160002060008b8152602001908152602001600020600090556112f3600161168d565b898b73ffffffffffffffffffffffffffffffffffffffff163373ffffffffffffffffffffffffffffffffffffffff167f9ba1a3cb55ce8d63d072a886f94d2a744f50cddf82128e897d0661f5ec62315860405160405180910390a45050505050505050505050565b82826000600360008473ffffffffffffffffffffffffffffffffffffffff1673ffffffffffffffffffffffffffffffffffffffff168152602001908152602001600020600083815260200190815260200160002054905060008114156113fa5782826040517f6831488c0000000000000000000000000000000000000000000000000000000081526004016113f1929190611c09565b60405180910390fd5b60026000541415611440576040517f08c379a000000000000000000000000000000000000000000000000000000000815260040161143790611d83565b60405180910390fd5b6002600081905550858533600083905060008173ffffffffffffffffffffffffffffffffffffffff16636352211e856040518263ffffffff1660e01b815260040161148b9190611a20565b60206040518083038186803b1580156114a357600080fd5b505afa1580156114b7573d6000803e3d6000fd5b505050506040513d601f19601f820116820180604052508101906114db9190611c47565b90508073ffffffffffffffffffffffffffffffffffffffff168373ffffffffffffffffffffffffffffffffffffffff1614611542576040517f30cd747100000000000000000000000000000000000000000000000000000000815260040160405180910390fd5b600089141561157d576040517fe1abbfc500000000000000000000000000000000000000000000000000000000815260040160405180910390fd5b6000600360008d73ffffffffffffffffffffffffffffffffffffffff1673ffffffffffffffffffffffffffffffffffffffff16815260200190815260200160002060008c81526020019081526020016000205490508960046000838152602001908152602001600020600201819055508a8c73ffffffffffffffffffffffffffffffffffffffff163373ffffffffffffffffffffffffffffffffffffffff167fd547e933094f12a9159076970143ebe73234e64480317844b0dcb36117116de48d60405161164b9190611a20565b60405180910390a45050505050506001600081905550505050505050565b600081600001549050919050565b6001816000016000828254019250508190555050565b600081600001549050600081116116d9576040517f08c379a00000000000000000000000000000000000000000000000000000000081526004016116d090611e5d565b60405180910390fd5b6001810382600001819055505050565b6040518060a00160405280600081526020016000815260200160008152602001600073ffffffffffffffffffffffffffffffffffffffff168152602001600073ffffffffffffffffffffffffffffffffffffffff1681525090565b600080fd5b6000819050919050565b61175c81611749565b811461176757600080fd5b50565b60008135905061177981611753565b92915050565b60006020828403121561179557611794611744565b5b60006117a38482850161176a565b91505092915050565b6117b581611749565b82525050565b600073ffffffffffffffffffffffffffffffffffffffff82169050919050565b60006117e6826117bb565b9050919050565b6117f6816117db565b82525050565b60a08201600082015161181260008501826117ac565b50602082015161182560208501826117ac565b50604082015161183860408501826117ac565b50606082015161184b60608501826117ed565b50608082015161185e60808501826117ed565b50505050565b600060a08201905061187960008301846117fc565b92915050565b600081519050919050565b600082825260208201905092915050565b6000819050602082019050919050565b60a0820160008201516118c160008501826117ac565b5060208201516118d460208501826117ac565b5060408201516118e760408501826117ac565b5060608201516118fa60608501826117ed565b50608082015161190d60808501826117ed565b50505050565b600061191f83836118ab565b60a08301905092915050565b6000602082019050919050565b60006119438261187f565b61194d818561188a565b93506119588361189b565b8060005b838110156119895781516119708882611913565b975061197b8361192b565b92505060018101905061195c565b5085935050505092915050565b600060208201905081810360008301526119b08184611938565b905092915050565b6119c1816117db565b81146119cc57600080fd5b50565b6000813590506119de816119b8565b92915050565b6000602082840312156119fa576119f9611744565b5b6000611a08848285016119cf565b91505092915050565b611a1a81611749565b82525050565b6000602082019050611a356000830184611a11565b92915050565b600080600060608486031215611a5457611a53611744565b5b6000611a62868287016119cf565b9350506020611a738682870161176a565b9250506040611a848682870161176a565b9150509250925092565b60008060408385031215611aa557611aa4611744565b5b6000611ab3858286016119cf565b9250506020611ac48582860161176a565b9150509250929050565b7f4e487b7100000000000000000000000000000000000000000000000000000000600052601160045260246000fd5b6000611b0882611749565b9150611b1383611749565b9250827fffffffffffffffffffffffffffffffffffffffffffffffffffffffffffffffff03821115611b4857611b47611ace565b5b828201905092915050565b6000611b5e82611749565b91507fffffffffffffffffffffffffffffffffffffffffffffffffffffffffffffffff821415611b9157611b90611ace565b5b600182019050919050565b7f4e487b7100000000000000000000000000000000000000000000000000000000600052604160045260246000fd5b7f4e487b7100000000000000000000000000000000000000000000000000000000600052603260045260246000fd5b611c03816117db565b82525050565b6000604082019050611c1e6000830185611bfa565b611c2b6020830184611a11565b9392505050565b600081519050611c41816119b8565b92915050565b600060208284031215611c5d57611c5c611744565b5b6000611c6b84828501611c32565b91505092915050565b600081905092915050565b50565b6000611c8f600083611c74565b9150611c9a82611c7f565b600082019050919050565b6000611cb082611c82565b9150819050919050565b600082825260208201905092915050565b7f5472616e73666572206661696c65640000000000000000000000000000000000600082015250565b6000611d01600f83611cba565b9150611d0c82611ccb565b602082019050919050565b60006020820190508181036000830152611d3081611cf4565b9050919050565b7f5265656e7472616e637947756172643a207265656e7472616e742063616c6c00600082015250565b6000611d6d601f83611cba565b9150611d7882611d37565b602082019050919050565b60006020820190508181036000830152611d9c81611d60565b9050919050565b6000606082019050611db86000830186611bfa565b611dc56020830185611a11565b611dd26040830184611a11565b949350505050565b6000606082019050611def6000830186611bfa565b611dfc6020830185611bfa565b611e096040830184611a11565b949350505050565b7f436f756e7465723a2064656372656d656e74206f766572666c6f770000000000600082015250565b6000611e47601b83611cba565b9150611e5282611e11565b602082019050919050565b60006020820190508181036000830152611e7681611e3a565b905091905056fea2646970667358221220b69b6930ee335b48fcfc534b0fa99ca9bb27534009cee2d230bd7ce1725e637264736f6c63430008090033",
  "linkReferences": {},
  "deployedLinkReferences": {}
}