{
  "_format": "hh-sol-artifact-1",
  "contractName": "NftMarketplace",
  "sourceName": "contracts/NftMarketplace.sol",
  "abi": [
    {
      "inputs": [
        {
          "internalType": "address",
          "name": "nftAddress",
          "type": "address"
        },
        {
          "internalType": "uint256",
          "name": "tokenId",
          "type": "uint256"
        }
      ],
      "name": "AlreadyListed",
      "type": "error"
    },
    {
      "inputs": [],
      "name": "NoProceeds",
      "type": "error"
    },
    {
      "inputs": [],
      "name": "NotApprovedForMarketplace",
      "type": "error"
    },
    {
      "inputs": [
        {
          "internalType": "address",
          "name": "nftAddress",
          "type": "address"
        },
        {
          "internalType": "uint256",
          "name": "tokenId",
          "type": "uint256"
        }
      ],
      "name": "NotListed",
      "type": "error"
    },
    {
      "inputs": [],
      "name": "NotOwner",
      "type": "error"
    },
    {
      "inputs": [],
      "name": "PriceMustBeAboveZero",
      "type": "error"
    },
    {
      "inputs": [
        {
          "internalType": "address",
          "name": "nftAddress",
          "type": "address"
        },
        {
          "internalType": "uint256",
          "name": "tokenId",
          "type": "uint256"
        },
        {
          "internalType": "uint256",
          "name": "price",
          "type": "uint256"
        }
      ],
      "name": "PriceNotMet",
      "type": "error"
    },
    {
      "anonymous": false,
      "inputs": [
        {
          "indexed": true,
          "internalType": "address",
          "name": "buyer",
          "type": "address"
        },
        {
          "indexed": true,
          "internalType": "address",
          "name": "nftAddress",
          "type": "address"
        },
        {
          "indexed": true,
          "internalType": "uint256",
          "name": "tokenId",
          "type": "uint256"
        },
        {
          "indexed": false,
          "internalType": "uint256",
          "name": "price",
          "type": "uint256"
        }
      ],
      "name": "ItemBought",
      "type": "event"
    },
    {
      "anonymous": false,
      "inputs": [
        {
          "indexed": true,
          "internalType": "address",
          "name": "seller",
          "type": "address"
        },
        {
          "indexed": true,
          "internalType": "address",
          "name": "nftAddress",
          "type": "address"
        },
        {
          "indexed": true,
          "internalType": "uint256",
          "name": "tokenId",
          "type": "uint256"
        }
      ],
      "name": "ItemCanceled",
      "type": "event"
    },
    {
      "anonymous": false,
      "inputs": [
        {
          "indexed": true,
          "internalType": "address",
          "name": "seller",
          "type": "address"
        },
        {
          "indexed": true,
          "internalType": "address",
          "name": "nftAddress",
          "type": "address"
        },
        {
          "indexed": true,
          "internalType": "uint256",
          "name": "tokenId",
          "type": "uint256"
        },
        {
          "indexed": false,
          "internalType": "uint256",
          "name": "price",
          "type": "uint256"
        }
      ],
      "name": "ItemListed",
      "type": "event"
    },
    {
      "inputs": [
        {
          "internalType": "address",
          "name": "nftAddress",
          "type": "address"
        },
        {
          "internalType": "uint256",
          "name": "tokenId",
          "type": "uint256"
        }
      ],
      "name": "buyItem",
      "outputs": [],
      "stateMutability": "payable",
      "type": "function"
    },
    {
      "inputs": [
        {
          "internalType": "address",
          "name": "nftAddress",
          "type": "address"
        },
        {
          "internalType": "uint256",
          "name": "tokenId",
          "type": "uint256"
        }
      ],
      "name": "cancelListing",
      "outputs": [],
      "stateMutability": "nonpayable",
      "type": "function"
    },
    {
      "inputs": [],
      "name": "getAllItemsListed",
      "outputs": [
        {
          "components": [
            {
              "internalType": "uint256",
              "name": "tokenId",
              "type": "uint256"
            },
            {
              "internalType": "address",
              "name": "contractAddress",
              "type": "address"
            },
            {
              "internalType": "uint256",
              "name": "price",
              "type": "uint256"
            },
            {
              "internalType": "address",
              "name": "seller",
              "type": "address"
            },
            {
              "internalType": "bool",
              "name": "forSale",
              "type": "bool"
            }
          ],
          "internalType": "struct NftMarketplace.ListedItem[]",
          "name": "",
          "type": "tuple[]"
        }
      ],
      "stateMutability": "view",
      "type": "function"
    },
    {
      "inputs": [
        {
          "internalType": "address",
          "name": "nftAddress",
          "type": "address"
        },
        {
          "internalType": "uint256",
          "name": "tokenId",
          "type": "uint256"
        }
      ],
      "name": "getListing",
      "outputs": [
        {
          "components": [
            {
              "internalType": "uint256",
              "name": "tokenId",
              "type": "uint256"
            },
            {
              "internalType": "address",
              "name": "contractAddress",
              "type": "address"
            },
            {
              "internalType": "uint256",
              "name": "price",
              "type": "uint256"
            },
            {
              "internalType": "address",
              "name": "seller",
              "type": "address"
            },
            {
              "internalType": "bool",
              "name": "forSale",
              "type": "bool"
            }
          ],
          "internalType": "struct NftMarketplace.ListedItem",
          "name": "",
          "type": "tuple"
        }
      ],
      "stateMutability": "view",
      "type": "function"
    },
    {
      "inputs": [
        {
          "internalType": "address",
          "name": "seller",
          "type": "address"
        }
      ],
      "name": "getProceeds",
      "outputs": [
        {
          "internalType": "uint256",
          "name": "",
          "type": "uint256"
        }
      ],
      "stateMutability": "view",
      "type": "function"
    },
    {
      "inputs": [
        {
          "internalType": "address",
          "name": "nftAddress",
          "type": "address"
        },
        {
          "internalType": "uint256",
          "name": "tokenId",
          "type": "uint256"
        },
        {
          "internalType": "uint256",
          "name": "price",
          "type": "uint256"
        }
      ],
      "name": "listItem",
      "outputs": [],
      "stateMutability": "nonpayable",
      "type": "function"
    },
    {
      "inputs": [
        {
          "internalType": "address",
          "name": "nftAddress",
          "type": "address"
        },
        {
          "internalType": "uint256",
          "name": "tokenId",
          "type": "uint256"
        },
        {
          "internalType": "uint256",
          "name": "newPrice",
          "type": "uint256"
        }
      ],
      "name": "updateListing",
      "outputs": [],
      "stateMutability": "nonpayable",
      "type": "function"
    },
    {
      "inputs": [],
      "name": "withdrawProceeds",
      "outputs": [],
      "stateMutability": "nonpayable",
      "type": "function"
    }
  ],
  "bytecode": "0x608060405234801561001057600080fd5b50600160008190555061292e806100286000396000f3fe60806040526004361061007b5760003560e01c80639038e6931161004e5780639038e6931461014e5780639f37092a14610165578063b2ddee0614610181578063f772adf1146101aa5761007b565b80632f7e81db1461008057806330cfeda9146100ab57806388700d1c146100e857806389bfd38f14610125575b600080fd5b34801561008c57600080fd5b506100956101d3565b6040516100a291906122fa565b60405180910390f35b3480156100b757600080fd5b506100d260048036038101906100cd919061234d565b61043c565b6040516100df9190612389565b60405180910390f35b3480156100f457600080fd5b5061010f600480360381019061010a91906123d0565b610485565b60405161011c9190612478565b60405180910390f35b34801561013157600080fd5b5061014c60048036038101906101479190612493565b6106ab565b005b34801561015a57600080fd5b50610163610cba565b005b61017f600480360381019061017a91906123d0565b610e2d565b005b34801561018d57600080fd5b506101a860048036038101906101a391906123d0565b611590565b005b3480156101b657600080fd5b506101d160048036038101906101cc9190612493565b611bee565b005b6060600080600090505b60018054905081101561024457600181815481106101fe576101fd6124e6565b5b906000526020600020906004020160030160149054906101000a900460ff161561023157818061022d90612544565b9250505b808061023c90612544565b9150506101dd565b5060008167ffffffffffffffff8111156102615761026061258d565b5b60405190808252806020026020018201604052801561029a57816020015b610287612111565b81526020019060019003908161027f5790505b509050600080600090505b60018054905081101561043257600181815481106102c6576102c56124e6565b5b906000526020600020906004020160030160149054906101000a900460ff161561041f57600181815481106102fe576102fd6124e6565b5b90600052602060002090600402016040518060a0016040529081600082015481526020016001820160009054906101000a900473ffffffffffffffffffffffffffffffffffffffff1673ffffffffffffffffffffffffffffffffffffffff1673ffffffffffffffffffffffffffffffffffffffff168152602001600282015481526020016003820160009054906101000a900473ffffffffffffffffffffffffffffffffffffffff1673ffffffffffffffffffffffffffffffffffffffff1673ffffffffffffffffffffffffffffffffffffffff1681526020016003820160149054906101000a900460ff161515151581525050838381518110610405576104046124e6565b5b6020026020010181905250818061041b90612544565b9250505b808061042a90612544565b9150506102a5565b5081935050505090565b6000600260008373ffffffffffffffffffffffffffffffffffffffff1673ffffffffffffffffffffffffffffffffffffffff168152602001908152602001600020549050919050565b61048d612111565b60005b600180549050811015610669578373ffffffffffffffffffffffffffffffffffffffff16600182815481106104c8576104c76124e6565b5b906000526020600020906004020160010160009054906101000a900473ffffffffffffffffffffffffffffffffffffffff1673ffffffffffffffffffffffffffffffffffffffff161480156105415750826001828154811061052d5761052c6124e6565b5b906000526020600020906004020160000154145b15610656576001818154811061055a576105596124e6565b5b90600052602060002090600402016040518060a0016040529081600082015481526020016001820160009054906101000a900473ffffffffffffffffffffffffffffffffffffffff1673ffffffffffffffffffffffffffffffffffffffff1673ffffffffffffffffffffffffffffffffffffffff168152602001600282015481526020016003820160009054906101000a900473ffffffffffffffffffffffffffffffffffffffff1673ffffffffffffffffffffffffffffffffffffffff1673ffffffffffffffffffffffffffffffffffffffff1681526020016003820160149054906101000a900460ff1615151515815250509150506106a5565b808061066190612544565b915050610490565b506040517f08c379a000000000000000000000000000000000000000000000000000000000815260040161069c90612619565b60405180910390fd5b92915050565b8282336106b6612111565b60005b60018054905081101561088d578473ffffffffffffffffffffffffffffffffffffffff16600182815481106106f1576106f06124e6565b5b906000526020600020906004020160010160009054906101000a900473ffffffffffffffffffffffffffffffffffffffff1673ffffffffffffffffffffffffffffffffffffffff1614801561076a57508360018281548110610756576107556124e6565b5b906000526020600020906004020160000154145b1561087a5760018181548110610783576107826124e6565b5b90600052602060002090600402016040518060a0016040529081600082015481526020016001820160009054906101000a900473ffffffffffffffffffffffffffffffffffffffff1673ffffffffffffffffffffffffffffffffffffffff1673ffffffffffffffffffffffffffffffffffffffff168152602001600282015481526020016003820160009054906101000a900473ffffffffffffffffffffffffffffffffffffffff1673ffffffffffffffffffffffffffffffffffffffff1673ffffffffffffffffffffffffffffffffffffffff1681526020016003820160149054906101000a900460ff16151515158152505091505b808061088590612544565b9150506106b9565b506000816040015111156108da5783836040517f4a5568d50000000000000000000000000000000000000000000000000000000081526004016108d1929190612648565b60405180910390fd5b868633600083905060008173ffffffffffffffffffffffffffffffffffffffff16636352211e856040518263ffffffff1660e01b815260040161091d9190612389565b60206040518083038186803b15801561093557600080fd5b505afa158015610949573d6000803e3d6000fd5b505050506040513d601f19601f8201168201806040525081019061096d9190612686565b90508073ffffffffffffffffffffffffffffffffffffffff168373ffffffffffffffffffffffffffffffffffffffff16146109d4576040517f30cd747100000000000000000000000000000000000000000000000000000000815260040160405180910390fd5b60008a11610a0e576040517fe1abbfc500000000000000000000000000000000000000000000000000000000815260040160405180910390fd5b60008c90503073ffffffffffffffffffffffffffffffffffffffff168173ffffffffffffffffffffffffffffffffffffffff1663081812fc8e6040518263ffffffff1660e01b8152600401610a639190612389565b60206040518083038186803b158015610a7b57600080fd5b505afa158015610a8f573d6000803e3d6000fd5b505050506040513d601f19601f82011682018060405250810190610ab39190612686565b73ffffffffffffffffffffffffffffffffffffffff1614610b00576040517f4be3a2c500000000000000000000000000000000000000000000000000000000815260040160405180910390fd5b60016040518060a001604052808e81526020018f73ffffffffffffffffffffffffffffffffffffffff1681526020018d81526020013373ffffffffffffffffffffffffffffffffffffffff1681526020016001151581525090806001815401808255809150506001900390600052602060002090600402016000909190919091506000820151816000015560208201518160010160006101000a81548173ffffffffffffffffffffffffffffffffffffffff021916908373ffffffffffffffffffffffffffffffffffffffff1602179055506040820151816002015560608201518160030160006101000a81548173ffffffffffffffffffffffffffffffffffffffff021916908373ffffffffffffffffffffffffffffffffffffffff16021790555060808201518160030160146101000a81548160ff02191690831515021790555050508b8d73ffffffffffffffffffffffffffffffffffffffff163373ffffffffffffffffffffffffffffffffffffffff167fd547e933094f12a9159076970143ebe73234e64480317844b0dcb36117116de48e604051610ca39190612389565b60405180910390a450505050505050505050505050565b6000600260003373ffffffffffffffffffffffffffffffffffffffff1673ffffffffffffffffffffffffffffffffffffffff16815260200190815260200160002054905060008111610d38576040517fc4d8fa8700000000000000000000000000000000000000000000000000000000815260040160405180910390fd5b6000600260003373ffffffffffffffffffffffffffffffffffffffff1673ffffffffffffffffffffffffffffffffffffffff1681526020019081526020016000208190555060003373ffffffffffffffffffffffffffffffffffffffff1682604051610da3906126e4565b60006040518083038185875af1925050503d8060008114610de0576040519150601f19603f3d011682016040523d82523d6000602084013e610de5565b606091505b5050905080610e29576040517f08c379a0000000000000000000000000000000000000000000000000000000008152600401610e2090612745565b60405180910390fd5b5050565b8181610e37612111565b60005b60018054905081101561100e578373ffffffffffffffffffffffffffffffffffffffff1660018281548110610e7257610e716124e6565b5b906000526020600020906004020160010160009054906101000a900473ffffffffffffffffffffffffffffffffffffffff1673ffffffffffffffffffffffffffffffffffffffff16148015610eeb57508260018281548110610ed757610ed66124e6565b5b906000526020600020906004020160000154145b15610ffb5760018181548110610f0457610f036124e6565b5b90600052602060002090600402016040518060a0016040529081600082015481526020016001820160009054906101000a900473ffffffffffffffffffffffffffffffffffffffff1673ffffffffffffffffffffffffffffffffffffffff1673ffffffffffffffffffffffffffffffffffffffff168152602001600282015481526020016003820160009054906101000a900473ffffffffffffffffffffffffffffffffffffffff1673ffffffffffffffffffffffffffffffffffffffff1673ffffffffffffffffffffffffffffffffffffffff1681526020016003820160149054906101000a900460ff16151515158152505091505b808061100690612544565b915050610e3a565b50600081604001511161105a5782826040517f6831488c000000000000000000000000000000000000000000000000000000008152600401611051929190612648565b60405180910390fd5b600260005414156110a0576040517f08c379a0000000000000000000000000000000000000000000000000000000008152600401611097906127b1565b60405180910390fd5b60026000819055506110b0612111565b60005b600180549050811015611287578673ffffffffffffffffffffffffffffffffffffffff16600182815481106110eb576110ea6124e6565b5b906000526020600020906004020160010160009054906101000a900473ffffffffffffffffffffffffffffffffffffffff1673ffffffffffffffffffffffffffffffffffffffff16148015611164575085600182815481106111505761114f6124e6565b5b906000526020600020906004020160000154145b15611274576001818154811061117d5761117c6124e6565b5b90600052602060002090600402016040518060a0016040529081600082015481526020016001820160009054906101000a900473ffffffffffffffffffffffffffffffffffffffff1673ffffffffffffffffffffffffffffffffffffffff1673ffffffffffffffffffffffffffffffffffffffff168152602001600282015481526020016003820160009054906101000a900473ffffffffffffffffffffffffffffffffffffffff1673ffffffffffffffffffffffffffffffffffffffff1673ffffffffffffffffffffffffffffffffffffffff1681526020016003820160149054906101000a900460ff16151515158152505091505b808061127f90612544565b9150506110b3565b5080604001513410156112d957858582604001516040517f7c9345650000000000000000000000000000000000000000000000000000000081526004016112d0939291906127d1565b60405180910390fd5b3460026000836060015173ffffffffffffffffffffffffffffffffffffffff1673ffffffffffffffffffffffffffffffffffffffff168152602001908152602001600020600082825461132c9190612808565b925050819055508573ffffffffffffffffffffffffffffffffffffffff166342842e0e826060015133886040518463ffffffff1660e01b81526004016113749392919061285e565b600060405180830381600087803b15801561138e57600080fd5b505af11580156113a2573d6000803e3d6000fd5b5050505060005b600180549050811015611515578673ffffffffffffffffffffffffffffffffffffffff16600182815481106113e1576113e06124e6565b5b906000526020600020906004020160010160009054906101000a900473ffffffffffffffffffffffffffffffffffffffff1673ffffffffffffffffffffffffffffffffffffffff1614801561145a57508560018281548110611446576114456124e6565b5b906000526020600020906004020160000154145b1561150257600060018281548110611475576114746124e6565b5b906000526020600020906004020160030160146101000a81548160ff02191690831515021790555033600182815481106114b2576114b16124e6565b5b906000526020600020906004020160030160006101000a81548173ffffffffffffffffffffffffffffffffffffffff021916908373ffffffffffffffffffffffffffffffffffffffff1602179055505b808061150d90612544565b9150506113a9565b50848673ffffffffffffffffffffffffffffffffffffffff163373ffffffffffffffffffffffffffffffffffffffff167f263223b1dd81e51054a4e6f791d45a4a1ddb4aadcd93a2dfd892615c3fdac18784604001516040516115789190612389565b60405180910390a45060016000819055505050505050565b818133600083905060008173ffffffffffffffffffffffffffffffffffffffff16636352211e856040518263ffffffff1660e01b81526004016115d39190612389565b60206040518083038186803b1580156115eb57600080fd5b505afa1580156115ff573d6000803e3d6000fd5b505050506040513d601f19601f820116820180604052508101906116239190612686565b90508073ffffffffffffffffffffffffffffffffffffffff168373ffffffffffffffffffffffffffffffffffffffff161461168a576040517f30cd747100000000000000000000000000000000000000000000000000000000815260040160405180910390fd5b8686611694612111565b60005b60018054905081101561186b578373ffffffffffffffffffffffffffffffffffffffff16600182815481106116cf576116ce6124e6565b5b906000526020600020906004020160010160009054906101000a900473ffffffffffffffffffffffffffffffffffffffff1673ffffffffffffffffffffffffffffffffffffffff1614801561174857508260018281548110611734576117336124e6565b5b906000526020600020906004020160000154145b156118585760018181548110611761576117606124e6565b5b90600052602060002090600402016040518060a0016040529081600082015481526020016001820160009054906101000a900473ffffffffffffffffffffffffffffffffffffffff1673ffffffffffffffffffffffffffffffffffffffff1673ffffffffffffffffffffffffffffffffffffffff168152602001600282015481526020016003820160009054906101000a900473ffffffffffffffffffffffffffffffffffffffff1673ffffffffffffffffffffffffffffffffffffffff1673ffffffffffffffffffffffffffffffffffffffff1681526020016003820160149054906101000a900460ff16151515158152505091505b808061186390612544565b915050611697565b5060008160400151116118b75782826040517f6831488c0000000000000000000000000000000000000000000000000000000081526004016118ae929190612648565b60405180910390fd5b60005b600180549050811015611b86578a73ffffffffffffffffffffffffffffffffffffffff16600182815481106118f2576118f16124e6565b5b906000526020600020906004020160010160009054906101000a900473ffffffffffffffffffffffffffffffffffffffff1673ffffffffffffffffffffffffffffffffffffffff1614801561196b57508960018281548110611957576119566124e6565b5b906000526020600020906004020160000154145b15611b735760018080805490506119829190612895565b81548110611993576119926124e6565b5b9060005260206000209060040201600182815481106119b5576119b46124e6565b5b9060005260206000209060040201600082015481600001556001820160009054906101000a900473ffffffffffffffffffffffffffffffffffffffff168160010160006101000a81548173ffffffffffffffffffffffffffffffffffffffff021916908373ffffffffffffffffffffffffffffffffffffffff160217905550600282015481600201556003820160009054906101000a900473ffffffffffffffffffffffffffffffffffffffff168160030160006101000a81548173ffffffffffffffffffffffffffffffffffffffff021916908373ffffffffffffffffffffffffffffffffffffffff1602179055506003820160149054906101000a900460ff168160030160146101000a81548160ff0219169083151502179055509050506001805480611ae757611ae66128c9565b5b60019003818190600052602060002090600402016000808201600090556001820160006101000a81549073ffffffffffffffffffffffffffffffffffffffff021916905560028201600090556003820160006101000a81549073ffffffffffffffffffffffffffffffffffffffff02191690556003820160146101000a81549060ff0219169055505090555b8080611b7e90612544565b9150506118ba565b50888a73ffffffffffffffffffffffffffffffffffffffff163373ffffffffffffffffffffffffffffffffffffffff167f9ba1a3cb55ce8d63d072a886f94d2a744f50cddf82128e897d0661f5ec62315860405160405180910390a450505050505050505050565b8282611bf8612111565b60005b600180549050811015611dcf578373ffffffffffffffffffffffffffffffffffffffff1660018281548110611c3357611c326124e6565b5b906000526020600020906004020160010160009054906101000a900473ffffffffffffffffffffffffffffffffffffffff1673ffffffffffffffffffffffffffffffffffffffff16148015611cac57508260018281548110611c9857611c976124e6565b5b906000526020600020906004020160000154145b15611dbc5760018181548110611cc557611cc46124e6565b5b90600052602060002090600402016040518060a0016040529081600082015481526020016001820160009054906101000a900473ffffffffffffffffffffffffffffffffffffffff1673ffffffffffffffffffffffffffffffffffffffff1673ffffffffffffffffffffffffffffffffffffffff168152602001600282015481526020016003820160009054906101000a900473ffffffffffffffffffffffffffffffffffffffff1673ffffffffffffffffffffffffffffffffffffffff1673ffffffffffffffffffffffffffffffffffffffff1681526020016003820160149054906101000a900460ff16151515158152505091505b8080611dc790612544565b915050611bfb565b506000816040015111611e1b5782826040517f6831488c000000000000000000000000000000000000000000000000000000008152600401611e12929190612648565b60405180910390fd5b60026000541415611e61576040517f08c379a0000000000000000000000000000000000000000000000000000000008152600401611e58906127b1565b60405180910390fd5b6002600081905550858533600083905060008173ffffffffffffffffffffffffffffffffffffffff16636352211e856040518263ffffffff1660e01b8152600401611eac9190612389565b60206040518083038186803b158015611ec457600080fd5b505afa158015611ed8573d6000803e3d6000fd5b505050506040513d601f19601f82011682018060405250810190611efc9190612686565b90508073ffffffffffffffffffffffffffffffffffffffff168373ffffffffffffffffffffffffffffffffffffffff1614611f63576040517f30cd747100000000000000000000000000000000000000000000000000000000815260040160405180910390fd5b6000891415611f9e576040517fe1abbfc500000000000000000000000000000000000000000000000000000000815260040160405180910390fd5b60005b600180549050811015612095578b73ffffffffffffffffffffffffffffffffffffffff1660018281548110611fd957611fd86124e6565b5b906000526020600020906004020160010160009054906101000a900473ffffffffffffffffffffffffffffffffffffffff1673ffffffffffffffffffffffffffffffffffffffff1614801561205257508a6001828154811061203e5761203d6124e6565b5b906000526020600020906004020160000154145b1561208257896001828154811061206c5761206b6124e6565b5b9060005260206000209060040201600201819055505b808061208d90612544565b915050611fa1565b50898b73ffffffffffffffffffffffffffffffffffffffff163373ffffffffffffffffffffffffffffffffffffffff167fd547e933094f12a9159076970143ebe73234e64480317844b0dcb36117116de48c6040516120f49190612389565b60405180910390a450505050506001600081905550505050505050565b6040518060a0016040528060008152602001600073ffffffffffffffffffffffffffffffffffffffff16815260200160008152602001600073ffffffffffffffffffffffffffffffffffffffff1681526020016000151581525090565b600081519050919050565b600082825260208201905092915050565b6000819050602082019050919050565b6000819050919050565b6121ad8161219a565b82525050565b600073ffffffffffffffffffffffffffffffffffffffff82169050919050565b60006121de826121b3565b9050919050565b6121ee816121d3565b82525050565b60008115159050919050565b612209816121f4565b82525050565b60a08201600082015161222560008501826121a4565b50602082015161223860208501826121e5565b50604082015161224b60408501826121a4565b50606082015161225e60608501826121e5565b5060808201516122716080850182612200565b50505050565b6000612283838361220f565b60a08301905092915050565b6000602082019050919050565b60006122a78261216e565b6122b18185612179565b93506122bc8361218a565b8060005b838110156122ed5781516122d48882612277565b97506122df8361228f565b9250506001810190506122c0565b5085935050505092915050565b60006020820190508181036000830152612314818461229c565b905092915050565b600080fd5b61232a816121d3565b811461233557600080fd5b50565b60008135905061234781612321565b92915050565b6000602082840312156123635761236261231c565b5b600061237184828501612338565b91505092915050565b6123838161219a565b82525050565b600060208201905061239e600083018461237a565b92915050565b6123ad8161219a565b81146123b857600080fd5b50565b6000813590506123ca816123a4565b92915050565b600080604083850312156123e7576123e661231c565b5b60006123f585828601612338565b9250506020612406858286016123bb565b9150509250929050565b60a08201600082015161242660008501826121a4565b50602082015161243960208501826121e5565b50604082015161244c60408501826121a4565b50606082015161245f60608501826121e5565b5060808201516124726080850182612200565b50505050565b600060a08201905061248d6000830184612410565b92915050565b6000806000606084860312156124ac576124ab61231c565b5b60006124ba86828701612338565b93505060206124cb868287016123bb565b92505060406124dc868287016123bb565b9150509250925092565b7f4e487b7100000000000000000000000000000000000000000000000000000000600052603260045260246000fd5b7f4e487b7100000000000000000000000000000000000000000000000000000000600052601160045260246000fd5b600061254f8261219a565b91507fffffffffffffffffffffffffffffffffffffffffffffffffffffffffffffffff82141561258257612581612515565b5b600182019050919050565b7f4e487b7100000000000000000000000000000000000000000000000000000000600052604160045260246000fd5b600082825260208201905092915050565b7f4e6f7420666f756e640000000000000000000000000000000000000000000000600082015250565b60006126036009836125bc565b915061260e826125cd565b602082019050919050565b60006020820190508181036000830152612632816125f6565b9050919050565b612642816121d3565b82525050565b600060408201905061265d6000830185612639565b61266a602083018461237a565b9392505050565b60008151905061268081612321565b92915050565b60006020828403121561269c5761269b61231c565b5b60006126aa84828501612671565b91505092915050565b600081905092915050565b50565b60006126ce6000836126b3565b91506126d9826126be565b600082019050919050565b60006126ef826126c1565b9150819050919050565b7f5472616e73666572206661696c65640000000000000000000000000000000000600082015250565b600061272f600f836125bc565b915061273a826126f9565b602082019050919050565b6000602082019050818103600083015261275e81612722565b9050919050565b7f5265656e7472616e637947756172643a207265656e7472616e742063616c6c00600082015250565b600061279b601f836125bc565b91506127a682612765565b602082019050919050565b600060208201905081810360008301526127ca8161278e565b9050919050565b60006060820190506127e66000830186612639565b6127f3602083018561237a565b612800604083018461237a565b949350505050565b60006128138261219a565b915061281e8361219a565b9250827fffffffffffffffffffffffffffffffffffffffffffffffffffffffffffffffff0382111561285357612852612515565b5b828201905092915050565b60006060820190506128736000830186612639565b6128806020830185612639565b61288d604083018461237a565b949350505050565b60006128a08261219a565b91506128ab8361219a565b9250828210156128be576128bd612515565b5b828203905092915050565b7f4e487b7100000000000000000000000000000000000000000000000000000000600052603160045260246000fdfea2646970667358221220101de28d18a03fa6962bf5e78ef26bafc1515f3da74c36b3a877137c6d9c11da64736f6c63430008090033",
  "linkReferences": {},
  "deployedLinkReferences": {}
}